S010000050726F6A656374352E7372656308
S11300000C942A000C9447000C9447000C9447006D
S11300100C9447000C9447000C9447000C94470040
S11300200C9447000C9447000C9447000C94470030
S11300300C9447000C9447000C9447000C94470020
S11300400C9447000C9447000C9447000C94470010
S11300500C94470011241FBECFE5D8E0DEBFCDBF0E
S113006010E0A0E6B0E0E2E8F2E102C005900D92F3
S1130070A03CB107D9F721E0A0ECB0E001C01D928B
S1130080AC34B207E1F70E9472010C943F090C945E
S113009000009C0183E083BF83E807C082BF98B758
S11300A0916098BF08B600FEFDCF21503109B0F72A
S11300B013BE08959C0182E083BF86EF07C082BF10
S11300C098B7916098BF08B600FEFDCF2150310962
S11300D0B0F713BE0895CF93DF9340E050E0E1E022
S11300E0F0E094B39F01042E02C0220F331F0A9440
S11300F0E2F72095922394BB95B3292325BB4F5F48
S11301005F4F4830510569F724B3C1E0D0E0AE0138
S113011002C0440F551F8A95E2F7CA01922F982B0B
S113012094BB95B38095892385BB85B36C5F7F4F62
S113013002C0CC0FDD1F6A95E2F78C2B85BB81E0F2
S113014090E00E94490083B390E0C823D92381E062
S113015090E0CD2B11F080E090E0DF91CF910895F5
S11301600F931F93CF93DF9300E010E018C0BE01FC
S1130170C8010E946B00009749F0000F111F000F87
S1130180111FC00FD11FCE0101960CC02196C4309F
S1130190D10569F70F5F1F4F0430110519F0C0E056
S11301A0D0E0E5CFDF91CF911F910F910895CF93C8
S11301B0DF93CDB7DEB761970FB6F894DEBF0FBEFD
S11301C0CDBF81E1EEE6F0E0DE01119601900D92E3
S11301D08A95E1F70E94B00021E030E02C0F3D1F2A
S11301E0820F931FFC01808161960FB6F894DEBFE5
S11301F00FBECDBFDF91CF910895662311F0C09A51
S113020001C0C098C19882BB8FEF81BBC29A000025
S113021000000000C2980895C098C19A11BA90B322
S1130220C29A00000000000011BA90B3C29899234A
S11302309CF30E94FD000895B89AB99ABA9A80E195
S113024090E00E94490060E080E30E94FD0085E0A8
S113025090E00E94490060E080E30E94FD0081E09C
S113026090E00E94490060E08CE30E940C0160E091
S11302708CE00E940C0160E086E00E940C0160E0CA
S113028081E00E940C01089560E081E00E940C016D
S11302900895CF93C62F98E2899FC00D112460E082
S11302A082E00E940C01CC2331F060E084E10E94E2
S11302B00C01C150D1F7CF91089561E00E940C0167
S11302C00895CF93DF93EC012196FC01808188236C
S11302D031F061E00E940C0189918111FACFDF9124
S11302E0CF910895CF93DF93CDB7DEB761970FB663
S11302F0F894DEBF0FBECDBF0E94AE0160E080E087
S11303000E944901E0E6F0E081818F9380818F9320
S11303108FE790E09F938F93CE0101969F938F93E5
S11303200E9455068FEB90E00E94610188EE93E0F5
S11303300E9449000F900F900F900F900F900F9014
S113034000E610E00E94B5030E94A902F80186812C
S113035097810E9449000E944401F4CF0E941C012D
S1130360D09AD19AD29AD39ABB9A8EE0E0E6F0E082
S1130370A0ECB0E001900D928A95E1F70895CF9238
S1130380DF92EF92FF920F931F93CF93DF93CDB73A
S1130390DEB761970FB6F894DEBF0FBECDBF0E94E3
S11303A0440160E080E00E944901E0E6F0E08181E0
S11303B08F9380818F9386E890E09F938F938E0133
S11303C00F5F1F4F1F930F930E945506C8010E9491
S11303D0610160E081E00E94490184E1E2E9F0E02A
S11303E0D80101900D928A95E1F7C8010E9461013C
S11303F00F900F900F900F900F900F9000E610E069
S11304000F2EF6E8CF2EF0E0DF2EF02DCE01019670
S11304107C010E94D700813419F5F8018081918113
S113042005969183808360E080E00E944901F80191
S113043081818F9380818F93DF92CF92FF92EF928D
S11304400E945506C7010E94610188EC90E00E9459
S113045049000F900F900F900F900F900F90D9CFED
S1130460823419F5F8018081918105979183808305
S113047060E080E00E944901F80181818F938081CE
S11304808F93DF92CF92FF92EF920E945506C7019D
S11304900E94610188EC90E00E9449000F900F9047
S11304A00F900F900F900F90B4CF843409F0B1CF18
S11304B088EC90E00E94490000E610E0F8012081F9
S11304C03181032E000C440B550B60E67AEE80E07C
S11304D090E00E94140622533109F80137832683E1
S11304E00E94440161960FB6F894DEBF0FBECDBFE3
S11304F0DF91CF911F910F91FF90EF90DF90CF90FC
S1130500089580916A0090916B00892B49F0609165
S1130510640080E00E94490180EB0E945D0108951F
S113052060E080E00E9449018FEB90E00E9461014D
S11305300895E0E6F0E084819581019683709078D7
S1130540992324F401978C6F9F6F0196958384837C
S113055008950F931F93CF93DF930E94810280919C
S1130560680090916900892B19F12BB300E610E023
S1130570C1E0D0E0CE01F801048002C0880F991FC9
S11305800A94E2F7822B8BBB40E050E060E87EE304
S113059082E790E00E94C1038BB3F801048002C09B
S11305A0CC0FDD1F0A94E2F7C095C823CBBB08C06B
S11305B040E050E060E87EE382E790E00E94C103FF
S11305C00E949902DF91CF911F910F9108958F920C
S11305D09F92AF92BF92CF92DF92EF92FF920F93CE
S11305E01F93CF93DF93CDB7DEB761970FB6F8941F
S11305F0DEBF0FBECDBF0E94440160E080E00E94D8
S11306004901E0E6F0E081858F9380858F938385AF
S11306108F9382858F9386EA90E09F938F938E01C8
S11306200F5F1F4F1F930F930E945506C8010E942E
S1130630610160E081E00E9449018CE0E4EBF0E0BC
S1130640D80101900D928A95E1F7C8010E946101D9
S11306500FB6F894DEBF0FBECDBF00E610E0AA24AB
S1130660A394B12C0F2EF6EACF2EF0E0DF2EF02D5E
S1130670FE0131967F01812C912C0E94D700813498
S113068061F59A2D8B2DF80122853385232B11F0EA
S1130690982D892DF8019287838760E080E00E947D
S11306A04901F80181858F9380858F9383858F938A
S11306B082858F93DF92CF92FF92EF920E9455062C
S11306C0C7010E94610188EC90E00E9449000FB6C6
S11306D0F894DEBF0FBECDBFD0CF823461F59A2D22
S11306E08B2DF80120853185232B11F0982D892D30
S11306F0F8019087818760E080E00E944901F80159
S113070081858F9380858F9383858F9382858F9343
S1130710DF92CF92FF92EF920E945506C7010E948A
S1130720610188EC90E00E9449000FB6F894DEBFA6
S11307300FBECDBFA2CF843409F09FCF88EC90E0E8
S11307400E94490061960FB6F894DEBF0FBECDBF7C
S1130750DF91CF911F910F91FF90EF90DF90CF9099
S1130760BF90AF909F908F9008950E94D7008A32D7
S113077019F40E94BF010895833211F40E94E70224
S11307800895CF92DF92EF92FF920F931F93CF932E
S1130790DF938C016A017B0160E081E00E944901E2
S11307A0B801012E000C880B990B0E941B0527E150
S11307B037EB41E558E30E94A7059B01AC010E9479
S11307C005049B01AC01C701B6010E9471040E949B
S11307D0E3047B011616170674F4C0E0D0E0C39A54
S11307E0C8010E945A00C398C8010E945A00219669
S11307F0CE15DF05A1F7DF91CF911F910F91FF90E7
S1130800EF90DF90CF9008955058BB27AA270E94FD
S11308101C040C946D050E945F0538F00E94660567
S113082020F039F49F3F19F426F40C945C050EF47F
S1130830E095E7FB0C945605E92F0E947E0558F3DA
S1130840BA17620773078407950720F079F4A6F5B1
S11308500C94A0050EF4E0950B2EBA2FA02D0B01DD
S1130860B90190010C01CA01A0011124FF27591BF1
S113087099F0593F50F4503E68F11A16F040A22FF7
S1130880232F342F4427585FF3CF46953795279568
S1130890A795F0405395C9F77EF41F16BA0B620B67
S11308A0730B840BBAF09150A1F0FF0FBB1F661FAE
S11308B0771F881FC2F70EC0BA0F621F731F841FF1
S11308C048F4879577956795B795F7959E3F08F017
S11308D0B0CF9395880F08F09927EE0F97958795D9
S11308E008950E9485040C946D050E94660558F0D5
S11308F00E945F0540F029F45F3F29F00C945605EF
S113090051110C94A1050C945C050E947E0568F3BA
S11309109923B1F3552391F3951B550BBB27AA27B4
S113092062177307840738F09F5F5F4F220F331FEE
S1130930441FAA1FA9F335D00E2E3AF0E0E832D0B6
S113094091505040E695001CCAF72BD0FE2F29D0B9
S1130950660F771F881FBB1F261737074807AB078B
S1130960B0E809F0BB0B802DBF01FF2793585F4F00
S11309703AF09E3F510578F00C9456050C94A1056D
S11309805F3FE4F3983ED4F3869577956795B795E2
S1130990F7959F5FC9F7880F911D9695879597F9ED
S11309A00895E1E0660F771F881FBB1F6217730766
S11309B08407BA0720F0621B730B840BBA0BEE1F7B
S11309C088F7E09508950E94EA046894B1110C94A4
S11309D0A10508950E94860588F09F5798F0B92FC5
S11309E09927B751B0F0E1F0660F771F881F991F60
S11309F01AF0BA95C9F714C0B13091F00E94A0055D
S1130A00B1E008950C94A005672F782F8827B85F6C
S1130A1039F0B93FCCF3869577956795B395D9F7B7
S1130A203EF490958095709561957F4F8F4F9F4FC1
S1130A300895E89409C097FB3EF4909580957095CD
S1130A4061957F4F8F4F9F4F9923A9F0F92F96E916
S1130A50BB279395F695879577956795B795F1118B
S1130A60F8CFFAF4BB0F11F460FF1BC06F5F7F4F28
S1130A708F4F9F4F16C0882311F096E911C077233A
S1130A8021F09EE8872F762F05C0662371F096E843
S1130A90862F70E060E02AF09A95660F771F881F12
S1130AA0DAF7880F9695879597F9089597F99F67D0
S1130AB080E870E060E008959FEF80EC08950024E2
S1130AC00A941616170618060906089500240A94AF
S1130AD012161306140605060895092E0394000C35
S1130AE011F4882352F0BB0F40F4BF2B11F460FFC4
S1130AF004C06F5F7F4F8F4F9F4F089557FD9058ED
S1130B00440F551F59F05F3F71F04795880F97FBCD
S1130B10991F61F09F3F79F0879508951216130687
S1130B201406551FF2CF4695F1DF08C016161706B6
S1130B301806991FF1CF86957105610508940895EB
S1130B40E894BB2766277727CB0197F908950E947D
S1130B50BA050C946D050E945F0538F00E94660585
S1130B6020F0952311F00C9456050C945C05112487
S1130B700C94A1050E947E0570F3959FC1F3950F17
S1130B8050E0551F629FF001729FBB27F00DB11D0D
S1130B90639FAA27F00DB11DAA1F649F6627B00D9D
S1130BA0A11D661F829F2227B00DA11D621F739F86
S1130BB0B00DA11D621F839FA00D611D221F749F94
S1130BC03327A00D611D231F849F600D211D822FDB
S1130BD0762F6A2F11249F5750409AF0F1F0882302
S1130BE04AF0EE0FFF1FBB1F661F771F881F91502F
S1130BF05040A9F79E3F510580F00C9456050C9483
S1130C00A1055F3FE4F3983ED4F386957795679505
S1130C10B795F795E7959F5FC1F7FE2B880F911D58
S1130C209695879597F90895052E97FB1EF40094E1
S1130C300E942B0657FD07D00E94330607FC03D001
S1130C404EF40C942B0650954095309521953F4FCA
S1130C504F4F5F4F089590958095709561957F4FA4
S1130C608F4F9F4F0895A1E21A2EAA1BBB1BFD01B3
S1130C700DC0AA1FBB1FEE1FFF1FA217B307E40777
S1130C80F50720F0A21BB30BE40BF50B661F771FCF
S1130C90881F991F1A9469F76095709580959095AF
S1130CA09B01AC01BD01CF010895AEE0B0E0EBE5DE
S1130CB0F6E00C9416090D891E8986E08C831A834C
S1130CC009838FEF9FE79E838D83AE01475E5F4F5D
S1130CD06F89788DCE0101960E947706EF81F885A1
S1130CE0E00FF11F10822E96E4E00C943209ABE081
S1130CF0B0E0EDE7F6E00C9408096C017B018A0191
S1130D00FC0117821682838181FFCCC1CE0101963A
S1130D103C01F6019381F70193FD859193FF819145
S1130D207F01882309F4BAC1853239F493FD859192
S1130D3093FF81917F01853229F4B60190E00E94EE
S1130D406E08E7CF912C212C312CFFE1F315D8F05C
S1130D508B3279F038F4803279F08332A1F4232D88
S1130D6020611DC08D3261F0803369F4232D216030
S1130D7016C0832D8260382EE32DE4603E2E2AC0F7
S1130D80F32DF8601DC037FC2DC020ED280F2A304C
S1130D9040F08E32B9F436FC81C1232D2064322E0A
S1130DA019C036FE06C08AE0989E200D1124922EAA
S1130DB011C0EAE02E9E200D1124222EF32DF062A4
S1130DC03F2E08C08C3621F4832D8068382E02C053
S1130DD0883641F4F70193FD859193FF81917F015A
S1130DE08111B3CF982F9F7D9554933028F40C5FD5
S1130DF01F4F9FE399830DC0833631F0833771F021
S1130E00833509F059C021C0F801808189830E5FC0
S1130E101F4F88248394912C530113C02801F2E0BE
S1130E204F0E511CF801A080B18036FE03C0692D1D
S1130E3070E002C06FEF7FEFC5010E9463084C01B0
S1130E408201F32DFF773F2E16C0280122E0420EC7
S1130E50511CF801A080B18036FE03C0692D70E0FA
S1130E6002C06FEF7FEFC5010E9458084C01F32DBB
S1130E70F0683F2E820133FC1BC0822D90E088165F
S1130E809906B0F4B60180E290E00E946E082A94BC
S1130E90F4CFF50137FC859137FE81915F01B601EE
S1130EA090E00E946E0821102A9421E0821A910891
S1130EB08114910471F7E8C0843611F0893641F544
S1130EC0F80137FE07C060817181828193810C5FD4
S1130ED01F4F08C060817181072E000C880B990B8D
S1130EE00E5F1F4FF32DFF763F2E97FF09C090959D
S1130EF08095709561957F4F8F4F9F4FF0683F2E7F
S1130F002AE030E0A3010E94AA08882E861845C072
S1130F10853731F4232D2F7EB22E2AE030E025C010
S1130F20932D997FB92E8F36C1F018F4883579F056
S1130F30B5C0803719F0883721F0B0C0E92FE061DF
S1130F40BE2EB4FE0DC0FB2DF460BF2E09C034FECE
S1130F500AC0292F2660B22E06C028E030E005C062
S1130F6020E130E002C020E132E0F801B7FE07C022
S1130F7060817181828193810C5F1F4F06C0608103
S1130F80718180E090E00E5F1F4FA3010E94AA08C8
S1130F90882E8618FB2DFF773F2E36FE0DC0232D9D
S1130FA02E7FA22E891458F434FE0BC032FC09C0E3
S1130FB0832D8E7EA82E05C0B82CA32C03C0B82C7C
S1130FC001C0B92CA4FE0FC0FE01E80DF11D808103
S1130FD0803321F49A2D997EA92E09C0A2FE06C061
S1130FE0B394B39404C08A2D867809F0B394A3FC17
S1130FF011C0A0FE06C0B21488F4280C922C9B18D1
S11310000EC0B21460F4B60180E290E00E946E0853
S1131010B394F7CFB21418F42B1802C0982C212CD7
S1131020A4FE10C0B60180E390E00E946E08A2FE08
S113103017C0A1FC03C088E790E002C088E590E0F7
S1131040B6010CC08A2D867859F0A1FE02C08BE24D
S113105001C080E2A7FC8DE2B60190E00E946E0818
S1131060891438F4B60180E390E00E946E089A94E3
S1131070F7CF8A94F301E80DF11D8081B60190E069
S11310800E946E088110F5CF222009F442CEB601E9
S113109080E290E00E946E082A94F6CFF6018681E1
S11310A0978102C08FEF9FEF2B96E2E10C94240905
S11310B0FC010590615070400110D8F7809590951F
S11310C08E0F9F1F0895FC01615070400190011024
S11310D0D8F7809590958E0F9F1F08950F931F93B7
S11310E0CF93DF93FB01238121FD03C08FEF9FEF9B
S11310F02CC022FF16C046815781248135814217B6
S1131100530744F4A081B1819D012F5F3F4F318388
S113111020838C93268137812F5F3F4F378326832B
S113112014C08B01EC01FB010084F185E02D0995CD
S1131130892BE1F6D80116968D919C91179701960B
S113114017969C938E931697CE01DF91CF911F91A2
S11311500F910895FA01AA27283051F1203181F125
S1131160E8946F936E7F6E5F7F4F8F4F9F4FAF4FAB
S1131170B1E03ED0B4E03CD0670F781F891F9A1FBE
S1131180A11D680F791F8A1F911DA11D6A0F711D72
S1131190811D911DA11D20D009F468943F912AE07E
S11311A0269F11243019305D3193DEF6CF01089566
S11311B0462F4770405D4193B3E00FD0C9F7F6CF97
S11311C0462F4F70405D4A3318F0495D31FD40525F
S11311D0419302D0A9F7EACFB4E0A69597958795F5
S11311E077956795BA95C9F70097610571050895D4
S11311F09B01AC010A2E0694579547953795279580
S1131200BA95C9F7620F731F841F951FA01D089517
S11312102F923F924F925F926F927F928F929F9202
S1131220AF92BF92CF92DF92EF92FF920F931F93F0
S1131230CF93DF93CDB7DEB7CA1BDB0B0FB6F894A1
S1131240DEBF0FBECDBF09942A88398848885F84E1
S11312506E847D848C849B84AA84B984C884DF8052
S1131260EE80FD800C811B81AA81B981CE0FD11D36
S11312700FB6F894DEBF0FBECDBFED010895F8940C
S1051280FFCF9A
S11312824B0004000000EE0201000100010058318D
S113129232334134353642373839432A30234462B3
S11312A2706D3A256400437572722042504D3A259E
S11312B26400413A2B3520423A2D3520443A436F9B
S11312C26E6669726D004C43443A2564204C454471
S11312D23A256400413A4C434420423A4C45440086
S9030000FC
